:020000040800F2
:10000000900400204501000801030008F9020008DF
:10001000FD020008DD010008CF0800080000000014
:10002000000000000000000000000000A50400081F
:10003000E101000800000000AD0300089105000880
:100040005F0100085F0100085F0100085F01000810
:100050005F0100085F0100085F0100085F01000800
:100060005F0100085F0100085F0100085F010008F0
:100070005F0100085F0100085F0100085F010008E0
:100080005F0100085F0100085F0100085F010008D0
:100090005F0100085F0100085F0100085F010008C0
:1000A0005F0100085F0100085F0100085F010008B0
:1000B0005F0100085F0100085F0100085F010008A0
:1000C0005F0100085F0100085F0100085F01000890
:1000D0005F010008F50500085F0100085F010008E6
:1000E0005F0100085F0100085F0100085F01000870
:1000F0005F0100085F0100085F0100085F01000860
:100100005F0100085F0100085F0100085F0100084F
:100110005F0100085F0100085F0100085F0100083F
:100120005F0100085F0100085F0100085F0100082F
:10013000DFF80CD000F040F800480047F10A000852
:10014000900400200648804706480047FEE7FEE787
:10015000FEE7FEE7FEE7FEE7FEE7FEE7FEE7FEE777
:10016000950500083101000830B505462A460B46C2
:1001700012F8010B13F8014B08B1A042F8D01CB1E2
:10018000002802D06D1CF1E7284630BD30B50B4683
:10019000014600202022012409E021FA02F59D42B7
:1001A00005D303FA02F5491B04FA02F52844151E8B
:1001B000A2F10102F1DC30BD064C074D06E0E0681B
:1001C00040F0010394E8070098471034AC42F6D39E
:1001D000FFF7B2FFF00B0008100C000800BFFEE7AD
:1001E00070472DE9F041024600250026002000233B
:1001F0000024002791F803C00CF00F0591F803C00C
:100200000CF0100CBCF1000F03D091F802C04CEAC6
:10021000050591F800C0BCF1000F31D01468002032
:100220002BE04FF0010C0CFA00F3B1F800C00CEA1F
:1002300003069E4220D183004FF00F0C0CFA03F707
:10024000BC4305FA03FC4CEA040491F803C0BCF17A
:10025000280F06D14FF0010C0CFA00FCC2F814C0B4
:100260000AE091F803C0BCF1480F05D14FF0010C32
:100270000CFA00FCC2F810C0401C0828D1D314604E
:10028000B1F800C0BCF1FF0F34DD546800202EE04F
:1002900000F1080C4FF0010808FA0CF3B1F800C0A7
:1002A0000CEA03069E4221D183004FF00F0C0CFA9A
:1002B00003F7BC4305FA03FC4CEA040491F803C0BD
:1002C000BCF1280F05D100F1080C08FA0CF8C2F8AF
:1002D000148091F803C0BCF1480F07D100F1080C5D
:1002E0004FF0010808FA0CF8C2F81080401C0828EA
:1002F000CED35460BDE8F08100BFFEE700BFFEE74B
:10030000704708B54FF4A06000F046F825208DF83E
:10031000000001208DF801008DF802008DF8030027
:10032000684600F001F808BD70B5002100230F22D7
:10033000C47804B3154C246804F4E064C4F5E064A4
:10034000210AC1F10403CA40447804FA03F1847815
:100350001440214309010E4C0678A155047804F09D
:100360001F050124AC4005786D11AD0005F1E025B5
:10037000C5F8004109E0047804F01F050124AC40F1
:10038000044D0678761145F8264070BD0CED00E06E
:1003900000E400E080E100E002490143024A11600C
:1003A000704700000000FA050CED00E07047000007
:1003B00029B1064A92690243044B9A6104E0034A58
:1003C00092698243014B9A6170470000001002401D
:1003D00030B500210022002400232D4D6D6805F06A
:1003E0000C0121B1042905D0082923D105E0294DAC
:1003F000056022E0274D05601FE0254D6D6805F47E
:100400007012234D6D6805F48034022505EB92428D
:100410001CB9214D554305600BE01D4D6D6805F479
:1004200000351DB11C4D5543056002E0194D554383
:10043000056002E0174D056000BF00BF144D6D68F8
:1004400005F0F0010909154D6B5C0568DD4045605C
:100450000F4D6D6805F4E061090A104D6B5C45684D
:10046000DD4085600A4D6D6805F46051C90A0B4D89
:100470006B5C4568DD40C560054D6D6805F4404125
:10048000890B074D6B5CC568B5FBF3F5056130BDA5
:100490000010024000127A0000093D000000002018
:1004A00010000020704710B500F002F810BD0000E9
:1004B0000CB50020019000903348006840F4803073
:1004C0003149086000BF3048006800F400300090F7
:1004D0000198401C0190009818B90198B0F5A06FE0
:1004E000F1D12948006800F4003010B101200090DB
:1004F00001E0002000900098012843D123480068C3
:1005000040F01000214908600846006820F0030010
:1005100008600846006840F0020008601A48406819
:10052000194948600846406848600846406840F4F9
:10053000806048600846406820F47C1048600846A7
:10054000406840F4E81048600846006840F0807059
:10055000086000BF0C48006800F000700028F9D067
:100560000948406820F00300074948600846406891
:1005700040F00200486000BF0348406800F00C00F3
:100580000828F9D10CBD00000010024000200240F4
:100590007047000010B51348006840F00100114991
:1005A000086008464068104908400E4948600846FF
:1005B00000680E4908400B4908600846006820F4AE
:1005C000802008600846406820F4FE0048604FF430
:1005D0001F008860FFF767FF4FF000600449086064
:1005E00010BD0000001002400000FFF8FFFFF6FE03
:1005F00008ED00E010B540F22551134800F0A3F8D3
:1006000090B140F22551104800F026F80E4800F055
:1006100055F9C4B20D480E49096844540C480068A5
:10062000401C0B4908600DE040F22441064800F0F0
:100630008AF838B101200749087003480088024849
:10064000001D008810BD0000003801402800002077
:100650001C0000202000002010B50022002340F6DE
:100660006A14A14200D100BF0A1201249440A3B22F
:10067000DC43048010BD21B1828942F400528281A2
:1006800004E082894DF6FF731A40828170470000B2
:1006900000B585B001210420FFF78AFE01218803FF
:1006A000FFF786FE4FF40070ADF8100018208DF8AB
:1006B000130003208DF8120004A91A48FFF791FDDA
:1006C0004FF48060ADF8100004208DF8130004A9E9
:1006D0001448FFF786FD4FF4E13000900020ADF89C
:1006E0000400ADF80600ADF80800ADF80C000C20D1
:1006F000ADF80A0069460C4800F074F8FFF701FEF7
:10070000012240F22551084800F047F8012240F24A
:100710002441054800F041F801210348FFF7ABFFF1
:1007200005B000BD0008014000380140024600202D
:10073000B1F5007F00D100BF13880B400BB1012041
:1007400000E00020704770B5024600240023002519
:10075000002040F66A16B14200D100BFC1F3421535
:1007600001F01F03012606FA03F3012D02D1968939
:10077000334006E0022D02D1168A334001E0968A0A
:1007800033400C12012606FA04F41688344013B1E3
:100790000CB1012000E0002070BDF0B5034600243C
:1007A00000260025002040F66A17B94200D100BF9C
:1007B0001846C1F3421401F01F06012707FA06F597
:1007C000012C01D10C3004E0022C01D1103000E0EA
:1007D00014301AB107682F43076002E00768AF437F
:1007E0000760F0BD2DE9F04786B005460E460024AF
:1007F000A24600BFA1460027B08900B100BF2F4626
:100800002C8A4CF6FF700440F08804432C82AC899B
:100810004EF6F3100440B0883189084371890843CB
:100820000443AC81AC8A4FF6FF400440B0890443D6
:10083000AC8201A8FFF7CCFD1F48874202D1DDF84A
:1008400010A001E0DDF80CA0A88900F4004040B140
:100850000AEBCA0000EB0A1031684900B0FBF1F85E
:1008600007E00AEBCA0000EB0A1031688900B0FB10
:10087000F1F86420B8FBF0F004012009642101FBC9
:100880001089A88900F4004040B1322000EBC90073
:10089000B0FBF1F000F00700044308E0322000EB69
:1008A00009106421B0FBF1F000F00F0004432C812B
:1008B00006B0BDE8F0870000003801400146888896
:1008C000C0F308007047C1F308028280704700BF80
:1008D000FEE700000FB4054B10B503A9044A0298C7
:1008E00000F018F810BC5DF814FB0000CD0A0008F9
:1008F0002400002002E008C8121F08C1002AFAD113
:1009000070477047002001E001C1121F002AFBD18F
:10091000704700002DE9FF4F8BB09A460F46054601
:10092000002606E025280BD052460D9990476D1CF5
:10093000761C28780028F5D10FB03046BDE8F08F3E
:100940000024A0460122604900E0044315F8013F5D
:10095000203B02FA03F00842F7D128782E2817D15D
:1009600015F8010F44F004042A280ED06FF02F026E
:100970002878A0F1300109290AD808EB880102EB98
:10098000410100EB01086D1CF2E757F8048B6D1C68
:10099000287869283ED006DC0028CDD063280BD00B
:1009A000642804D136E0732810D075284BD0524605
:1009B0000D999047761C85E017F8040B8DF8000020
:1009C00000208DF80100E946012003E057F8049B60
:1009D0004FF0FF3061074FF0000401D40AE0641CBF
:1009E00044450DDA8442FADB19F804100029F6D1E7
:1009F00006E0641C8442FCDB19F804100029F8D1DD
:100A0000264404E019F8010B52460D999047641EE4
:100A1000F8D257E001CF4FF00A0B002802DA40422B
:100A20002D2102E0210504D52B218DF82410012170
:100A300003E0E10705D02021F7E70DF12009089137
:100A40000CE00021F9E701CF4FF00A0BF9E7594616
:100A5000FFF79CFB01F1300209F8012D0028F6D1C7
:100A6000ADEB090000F1200B600701D44FF0010845
:100A7000D84502DDA8EB0B0000E0002080460024F2
:100A800006E009A85246005D0D999047641C761C4B
:100A900008988442F5DB04E0302052460D999047D7
:100AA000761CB8F10001A8F10108F5DC05E019F8A1
:100AB000010B52460D999047761CBBF10001ABF13A
:100AC000010BF4DC6D1C34E70928010070B5044605
:100AD0000D46E1B20548FFF7F6FE00BF802103484E
:100AE000FFF724FE0028F9D0204670BD00380140F1
:100AF000FFF7CEFD1EA0FFF7EDFE37E01E480078A1
:100B0000002833D01D4801681DA0FFF7E3FE2249ED
:100B100022A0FFF7DFFE25A11F48FFF725FB244990
:100B200008600846006818B922A0FFF7D3FE04E069
:100B30001F48016825A0FFF7CDFE00202B49086063
:100B400009E000201449294A12688854274800689F
:100B5000401C264908602548006808490968884201
:100B6000EFD300200549086003490870C6E700007C
:100B7000746573740D0A0000200000201C00002022
:100B8000726563765F66696E69736820746F7461FD
:100B90006C3A25640D0A0000280000207374726905
:100BA0006E67203A2025730D0A0000002B0000001C
:100BB000140000206469646E2774206765742074D3
:100BC0006865207461726765740D0A00676574203A
:100BD0007468652074617267657420737472696EDD
:100BE00067203A2025730D0A00000000180000203D
:100BF000100C00080000002028000000F408000885
:100C0000380C0008280000206804000004090008CF
:100C100000000000010203040102030406070809A2
:100C200002040608000000000000000000000000B0
:080C30000000000000000000BC
:0400000508000131BD
:00000001FF
